:100000000C9472020C94B9020C94B9020C94B902CB
:100010000C94B9020C94B9020C94B9020C94B90274
:100020000C94B9020C94B9020C946B210C943E22EE
:100030000C94E7180C94B9020C94B9020C94B90210
:100040000C94B9020C94B9020C94B9020C94B90244
:100050000C94B9020C944F190C94B9020C94B90287
:100060000C94B9020C94B9020C94B9020C94B90224
:100070000C94B9020C94B9020C94B9020C94B90214
:100080000C94B9020C94B9020C94B9020C94B90204
:100090000C94B9020C94B9020C94B9020C94B902F4
:1000A0000C94B9020C94B9020C94B9020601000038
:1000B0000000190101000000000001000100000023
:1000C000000001000100000000000100010000002C
:1000D000000001000100000000000100010000001C
:1000E000000001000100000000000100010000000C
:1000F00000000100010000000000010001000000FC
:1001000000000100010000000000010001000000EB
:1001100000000100010000000000010001000000DB
:1001200000000100010000000000010064321464BE
:100130003214783C1E1E140A050000000001010163
:100140000202030405050607090A0B0C0E0F111223
:10015000141517191B1D1F212325282A2C2F313474
:1001600036393B3E414346494C4F5255585A5D61E2
:1001700064676A6D707376797C7F8386898C8F92D1
:1001800095989B9EA2A5A7AAADB0B3B6B9BCBEC1B7
:10019000C4C6C9CBCED0D3D5D7DADCDEE0E2E4E604
:1001A000E8EAEBEDEEF0F1F3F4F5F6F8F9FAFAFB24
:1001B000FCFDFDFEFEFEFFFFFFFFFFFFFFFEFEFE5C
:1001C000FDFDFCFBFAFAF9F8F6F5F4F3F1F0EEEDCB
:1001D000EBEAE8E6E4E2E0DEDCDAD7D5D3D0CECB5A
:1001E000C9C6C4C1BEBCB9B6B3B0ADAAA7A5A29ECC
:1001F0009B9895928F8C898683807C797673706DBD
:100200006A6764615D5A5855524F4C494643413EB6
:100210003B393634312F2C2A282523211F1D1B1949
:1002200017151412110F0E0C0B0A09070605050409
:1002300003020201010100000000000000000101B2
:100240000101010101010102020202020202020295
:100250000303030303030303040404040404050564
:100260000505050606060606070707070808080825
:100270000909090A0A0A0A0B0B0B0C0C0C0D0D0DCF
:100280000E0E0F0F0F101011111112121313141460
:10029000151516161717181819191A1A1B1C1C1DD4
:1002A0001D1E1F1F2020212222232425252627272B
:1002B00028292A2B2B2C2D2E2F2F30313233343559
:1002C00036363738393A3B3C3D3E3F404142434465
:1002D000464748494A4B4C4D4F505152535556573B
:1002E000585A5B5C5E5F606263646667696A6C6DE6
:1002F0006E707173747678797B7C7E80818384865E
:10030000888A8B8D8F91929496989A9B9D9FA1A39A
:10031000A5A7A9ABADAFB1B3B5B7B9BBBDBFC1C49C
:10032000C6C8CACCCFD1D3D6D8DADCDFE1E4E6E860
:10033000EBEDF0F2F5F7FAFCFF12036B00650079C4
:100340000062006F0061007200640000001603711B
:10035000006D006B006200750069006C0064006550
:1003600000720000000403090409026D000401008A
:10037000A0FA090400000103010100092111010094
:10038000012240000705810308000A090401000159
:1003900003010200092111010001224D000705821D
:1003A0000308000A090402000103000000092111EA
:1003B0000100012236000705830308000A0904032F
:1003C000000103000000092111010001223900078A
:1003D0000584032000011201100100000008EDFE59
:1003E000606001000102000105010906A101050785
:1003F00019E029E715002501950875018102050816
:100400001901290595057501910295017503910161
:100410000507190029F71500250195F875018102D6
:10042000C005010980A10185021601002603001AFA
:1004300081002A8300751095018100C0050C090117
:10044000A1018503160100269C021A01002A9C02C4
:10045000751095018100C005010902A1010901A1E2
:10046000000509190129051500250195057501816A
:1004700002950175038101050109300931158125B6
:100480007F95027508810609381581257F950175CC
:10049000088106050C0A38021581257F950175082B
:1004A0008106C0C005010906A101050719E029E779
:1004B00015002501950875018102950175088101D6
:1004C0000508190129059505750191029501750326
:1004D00091010507190029FF150026FF00950675F3
:1004E000088100C011241FBECFEFDAE0DEBFCDBF10
:1004F00004B603FE27C080911F0290912002A091B4
:100500002102B09122028730904BA740B04BD1F42A
:1005100010921F02109220021092210210922202C9
:1005200014BE84B7877F84BF0FB6F894A8958091D6
:100530006000886180936000109260000FBEE0E070
:10054000F8E3099511E0A0E0B1E0E8E2FBE402C0C5
:1005500005900D92AA32B107D9F722E0AAE2B1E0E4
:1005600001C01D92AF31B207E1F70E94B81E0C9492
:1005700092250C94000090E080E00895089508957D
:10058000089581E0089581E008950C94C3020E94CB
:100590005D112FEF84E39CE0215080409040E1F713
:1005A00000C000000C947419FF920F931F93CF9317
:1005B000DF938C01FC01C081D181809163018111A5
:1005C00048C08281882309F43FC0CE010E94C01632
:1005D000F82E682FCE010E946A16BE018F2D0E9450
:1005E0007004EC01B8010E94C502882309F478C0A8
:1005F000B801CE010E947D06882309F471C0C6337C
:10060000F0E7DF0709F484C0C0F5C53190E7D907EA
:1006100028F5C230E0E7DE0708F099C0C115F0E721
:10062000DF0709F458C0C130D04709F460C081E049
:1006300080932C0180932D01C801DF91CF911F91F0
:100640000F91FF900C94C102CE010E949716F82ED4
:10065000C4CFCE010E94C016BE01C1CFC43390E703
:10066000D90709F44EC0C533D04709F7F801828194
:100670008823B1F10E94FA0933C0CA33F0E7DF07DB
:1006800009F457C070F4F8018281C833F0E7DF073E
:1006900009F44AC008F443C0882311F10E943E09BE
:1006A0001FC0CC33E0E7DE0709F4D5C008F448C02A
:1006B000CD33D04709F0BBCFF8018281882309F4FC
:1006C000F1C010922D010E94191990932B01809373
:1006D0002A0180E2CDC0F801828181110E94C70207
:1006E00080E0DF91CF911F910F91FF900895F80165
:1006F00082818823A9F38091CE0181608093CE010D
:10070000EFCFF8018281882359F30E94040AE8CFD1
:10071000F8018281882321F30E94EF08E1CF88232A
:10072000F9F20E940709DCCF8823D1F20E94260942
:10073000D7CFF8018281882399F20E945609D0CF41
:10074000F8018281882361F20E946E09C9CFF80105
:100750008281882309F470CF0E947818811102C029
:100760000E9457180E94951890E090931102809370
:100770001002FE01E350F047809110028160E231E7
:10078000F105C8F4EA53FC4F0C944425D803E40364
:10079000E803EC03F003F403F803FC03000404048F
:1007A00008040C041004140418041C042004240479
:1007B00080911002826080931002809110020E944A
:1007C00099180E945D118CCF809110028460F3CF44
:1007D000809110028860EFCF809110028061EBCF92
:1007E000809110028062E7CF809110028064E3CF95
:1007F000809110028068DFCF809110028460EACF80
:10080000809110028E7FD7CF809110028D7FD3CF41
:10081000809110028B7FCFCF80911002877FCBCF4A
:10082000809110028F7EC7CF809110028F7DC3CF41
:10083000809110028F7BBFCF809110028F77BBCF4A
:10084000809110028B7FEACF90911002892F97FB45
:1008500087F98058B0CFF8018281882361F0109227
:100860002C010E94191990932B0180932A0182E098
:100870000E94E70E35CF80912C0181110FC080912D
:100880002A0190912B010E942519883C910530F492
:1008900086E20E94BC0D86E20E94980E82E00E94D1
:1008A000EE0E1ECF80912D0181110FC080912A0183
:1008B00090912B010E942519883C910530F487E224
:1008C0000E94BC0D87E20E94980E80E2E8CF0C9453
:1008D000CC060C94CE060C94C0020C946B040895C4
:1008E000E82FF0E0EE0FFF1FE70FF11DEE0FFF1FE7
:1008F000E60FF11DEE0FFF1FE455FF4F8591949118
:100900000895FC01EE0FFF1FE45DFE4F8591949169
:1009100008950E9470040E94FC05811520E492074E
:1009200008F08DC0811540E3940708F0E8C0803ED0
:10093000910508F071C0803C910508F0CCC0883A60
:10094000910580F4853A910508F0CAC0813091057F
:1009500009F46EC020F08430910508F069C090E081
:1009600080E008958D3B9105D0F7883A910509F410
:1009700004C1893A910509F403C18A3A910509F441
:1009800002C18B3A910509F401C18C3A910509F431
:1009900000C18B3B910509F4FFC08C3B910509F424
:1009A000FEC08D3A910509F4FDC0803B910509F424
:1009B000FCC08E3A910509F4FBC08F3A910509F409
:1009C000FAC0813B910509F4F9C0823B910509F415
:1009D000F8C0833B910509F4F7C0843B910509F405
:1009E000F6C0853B910509F4F5C0863B910509F4F5
:1009F000F4C0873B910509F4F3C0883B910509F4E5
:100A0000F2C0893B910509F4F1C08A3B910509F4D4
:100A1000F0C080E094E408958F3F910509F048F418
:100A2000803F910508F067C0883E910508F097CF98
:100A30000895811520E2920708F05FC0089581159E
:100A400043E5940760F5811522E5920708F062C03E
:100A5000811541E5940708F058C0811520E59207FB
:100A600008F450C09C0154E0369527955A95E1F75B
:100A7000922F9370482F437021E030E002C0220F84
:100A8000331F4A95E2F73C68392B8695869583702B
:100A900040E2849FC0011124822B932B089581157D
:100AA00045E5940750F4811524E5920708F446C003
:100AB000982F8827846F906A0895811546E59407DA
:100AC00008F450C09C0130569F702115304108F049
:100AD00046CF90620895805C91090E948104089538
:100AE000853A910509F443C0863A910509F042C060
:100AF00082E890E40895906508959F70EECF99275D
:100B0000906C08959F70906A0895982F8827816F40
:100B1000906A0895AC014370552721E030E002C08F
:100B2000220F331F4A95E2F78695869540E2849F0F
:100B3000C0011124822B932B9C680895AC01437053
:100B4000552721E030E002C0220F331F4A95E2F71B
:100B50008695869540E2849FC0011124822B932BB9
:100B60009A680895982F882788279F71B2CF81E8C7
:100B700090E4089583E890E4089582EE94E4089563
:100B800089EE94E408958AEE94E4089585EB94E464
:100B9000089586EB94E4089583EB94E4089584EB40
:100BA00094E4089587EB94E408958CEC94E408951C
:100BB0008DEC94E4089583E895E408958AE895E43B
:100BC000089582E995E4089584E995E4089581E221
:100BD00096E4089583E296E4089584E296E4089505
:100BE00085E296E4089586E296E4089587E296E425
:100BF00008958AE296E41CCF8238910549F1B0F459
:100C00008133910509F45CC048F48932910509F4F7
:100C100052C08A32910509F458C008958533910570
:100C200009F444C08933910599F00895833E9105F4
:100C300031F138F4803E910591F0823E9105B1F09A
:100C40000895863E910511F1873E910541F1089581
:100C5000209110022370C9F080EE90E00895209159
:100C6000100220FF12C089E390E008952091100245
:100C700022FF0BC024FF2EC090E080E00895209159
:100C8000100222FD2AC024FDF7CF08952091100202
:100C900023FFFBCF24FDF0CF87EE90E00895209155
:100CA000100223FFF0CF86EE90E00895209110020D
:100CB00025FD16C008952091100225FD14C0089549
:100CC0002091100226FD12C008952091100226FDE9
:100CD00010C0089583EE90E0089582EE90E00895AC
:100CE00089E290E0089585E390E008958AE290E03B
:100CF000089581E390E0C9CF08950F931F93CF9398
:100D00008C01FB018281811106C0C1E08C2FCF9143
:100D10001F910F910895C0913B01C11125C005316C
:100D2000104799F70E947C0681E080933B010E9466
:100D3000191990933A018093390110922E01109263
:100D4000300110922F011092320110923101109255
:100D50003401109233011092360110923501109235
:100D6000380110923701D2CF8091390190913A0128
:100D70000E942519883C910540F680912E01E82FAC
:100D8000F0E0EE0FFF1FE15DFE4F118300838F5FE8
:100D900080932E01C0E0BACF0C94BE020C94BF0227
:100DA00085B7806885BF85B7806885BF86988E9A2D
:100DB0002198299A5098589A3E98469AAEE3B1E005
:100DC0001C92ECE3F1E0108211961C9211820C94BB
:100DD0006704DF92EF92FF920F931F93CF93DF93FD
:100DE000CCE3D1E084E1E82E81E0F82E01E010E0D0
:100DF000DD24D39458811882F70181917F01E82F77
:100E0000E295EF70F0E091A18F70980101C0220F80
:100E10008A95EAF7892F822B81A392A1422F4095D0
:100E2000942392A380EA8A95F1F789B18095817025
:100E30009881892B888336993BC092E0892B8883DF
:100E400081A1842381A382A1822B82A38881581748
:100E500041F0D09240010E94191990934201809371
:100E600041012196E6E1EE16E1E0FE0619F68091D9
:100E70004001882391F080914101909142010E94AC
:100E80002519069750F080913C0180933E01809196
:100E90003D0180933F01109240010E94690481E06E
:100EA000DF91CF911F910F91FF90EF90DF90089508
:100EB00090E0C4CFE82FF0E0E25CFE4F808108951F
:100EC000089531B3242F2095232331B3432B3FB70B
:100ED000F894FC01680F791FE617F70711F43FBF7C
:100EE0000895819198E041BB000000C087FF21BBBD
:100EF000880F000000C000C000C021BB00C09A9550
:100F000091F7EACF20B3242B20BB9B01220F331F84
:100F1000620F731F0E94610787EC90E00197F1F761
:100F200000C00000089540E10C948207CF92DF9248
:100F3000EF92FF920F931F93CF93DF93E901662304
:100F400009F466C0E42EF12CEFEFF0E0E61BF109A6
:100F5000EE9D8001EF9D100DFE9D100D1124212F9F
:100F6000E12FFF27EE1AFF0A5CE3C52ED12CB60154
:100F70000E941C25FB01BC01E69EC001E79E900D6E
:100F8000F69E900D1124B6010E941C25E230F10559
:100F900089F168F4812F262F210F309781F0242FBB
:100FA000461B319761F080E020E040E008C0E4306B
:100FB000F10551F128F1842F861B3597A1F7E42F15
:100FC000F0E0E75CFD4F4491E22FF0E0E75CFD4F7D
:100FD0009491E82FF0E0E75CFD4FE491498398831A
:100FE000EA83DF91CF911F910F91FF90EF90DF90F7
:100FF000CF900895862F810FE42F412F2E2FDFCF22
:10100000E42FE61B842FF9CF842F462F410FD7CF33
:10101000842F242FD4CF88E090E00C945225AB018C
:10102000BC0188E090E00C947025EBEFF1E083E0E8
:1010300080831092FC018FEF828383836091FB0198
:101040007091FC018091FD019091FE010C940F08BC
:101050008091FB0180FD12C01092040210920302E5
:1010600010920502109207021092060210920802D6
:1010700010920A021092090210920B0263E070E0D3
:1010800083E092E00C949307E3E0F2E081836083D5
:1010900042838483638345838783668340870C947C
:1010A0002808EF92FF920F931F93CF93DF9300D006
:1010B0001F92CDB7DEB7182FE92EF62E042F8091A0
:1010C000FB019091FC01A091FD01B091FE01809384
:1010D000FF0190930002A0930102B093020280915D
:1010E000FB0180FF1FC09E012F5F3F4F812F9E2D70
:1010F0000E9496078091FF0110FB87F98093FF0102
:101100001695809100028078812BE0FA87F9809310
:101110000002F0920102009302024B8169818A81F0
:101120000E9444080F900F900F90DF91CF911F9174
:101130000F91FF90EF9008950F931F93CF93DF933C
:10114000EC01062F142F9091FB0190FF43C0892FD3
:101150008E77823021F5CE010E9451088091FB01EB
:10116000C0FB87F98093FB01C6958091FC018078D4
:10117000C82BD0FBC7F9C093FC010093FD0110936D
:10118000FE016091FB017091FC018091FD01909145
:10119000FE01DF91CF911F910F910C940F08892FC1
:1011A00086958F732EE3280F2F73243018F4109137
:1011B000FE01D4CF865C8F73893080F6991F992702
:1011C000991FD091FC01CD2FCC0FC92BD7FBDD2768
:1011D000D0F9C4CFDF91CF911F910F910895EBEF1C
:1011E000F1E02081221F2227221F3091FC01432F92
:1011F000440F842F822B37FB992790F9089668E6D5
:1012000071E00E943025438162810C949C082091FA
:10121000FB01221F2227221F3091FC01432F440F84
:10122000842F822B37FB992790F98830910540F461
:10123000805A9E4F4091FE016091FD010C949C08E4
:10124000089768E671E00E943025F4CF6091FD01B7
:10125000683F90F4685F8091FB01881F8827881F92
:101260009091FC01292F220F97FB992790F940912B
:10127000FE01822B0C949C086FEFEDCF6091FD0175
:10128000683090F068508091FB01881F8827881F84
:101290009091FC01292F220F97FB992790F94091FB
:1012A000FE01822B0C949C0860E0EDCF4091FE0182
:1012B000483F90F4485F8091FB01881F8827881F72
:1012C0009091FC01292F220F97FB992790F96091AB
:1012D000FD01822B0C949C084FEFEDCF4091FE0155
:1012E000483090F048508091FB01881F8827881F64
:1012F0009091FC01292F220F97FB992790F960917B
:10130000FD01822B0C949C0840E0EDCF9091FB01F5
:1013100090FF3BC09178811126C092609093FB01B1
:101320006091FB017091FC018091FD019091FE01A3
:101330000E940F088091FB01982F9E779230D9F47C
:1013400010925801881F8827881F9091FC01292F2F
:10135000220F97FB992790F94091FE016091FD01C2
:10136000822B0C949C08893110F09063D7CF8F7337
:10137000880F982BD3CF982F9695925C9F739631B8
:1013800008F791E090935801DDCF08958091CE0148
:1013900081608093CE0181E0809359010E9478188A
:1013A000811104C00E9457180E9415080E940B0862
:1013B0006093FB017093FC018093FD019093FE010B
:1013C0006E7761F40E9415080E940B086093FB0180
:1013D0007093FC018093FD019093FE0181E0809366
:1013E00058018091FB0180FF04C086958F730C9497
:1013F000860908958091FB0186958F738F5F8931EF
:1014000008F081E00C9486099091FB01892F8E7F72
:1014100090FF81608093FB016091FB017091FC0162
:101420008091FD019091FE010E940F088091FB01C7
:1014300080FF04C086958F730C9486091092580122
:101440002FEF80E792E0215080409040E1F700C00C
:1014500000000C942808CF93C82F809156019091DA
:1014600057010E942519EC2FF0E0EB5CFE4FE49150
:10147000E817190609F010F50E9419199093570101
:1014800080935601E0915501F0E0E75CFE4F4491F6
:101490008091FB01881F8827881F9091FC01292FCC
:1014A000220F97FB992790F96091FD01822B0E94F2
:1014B0005108809155018F5F80935501CF91089518
:1014C000CF93C82F80915301909154010E94251908
:1014D000EC2FF0E0EE5CFE4FE491E817190609F0FE
:1014E000E8F40E941919909354018093530140919C
:1014F000FE016091FD0180915101909152010E9485
:1015000051088091510190915201019668E671E075
:101510000E941C259093520180935101CF91089510
:10152000CF92DF92FF920F931F93CF93DF93F82E0A
:1015300080914F01909150010E942519EF2DE69561
:10154000F0E0EE5CFE4FE491E817190609F0B0F503
:101550000E9419199093500180934F0103E012E00B
:10156000D0E0C0E088E6C82EDD24D39480914D0100
:1015700090914E018C0F9D1FB6010E941C25980171
:101580004091FE016091FD010E949607C858DF4F0F
:101590000D5F1F4FC83681E0D80741F70E94280829
:1015A00080914D0190914E01F0FE10C00196BE0158
:1015B0000E941C2590934E0180934D01DF91CF91A5
:1015C0001F910F91FF90DF90CF9008950197F2CF78
:1015D000AF92BF92CF92DF92EF92FF920F931F9341
:1015E000CF93DF93C82FFF24FA9480FD02C0FF241D
:1015F000F39480914B0190914C010E942519C6955E
:10160000EC2FF0E0E15DFE4FE491E817190611F0D0
:1016100008F053C00E94191990934C0180934B011C
:10162000C3E0D2E010E000E097E0C92ED12C19828F
:1016300018821A8287E0A82EB12CE12C80914A01F1
:101640008E0D87FD8D5F082E000C990B081719076A
:10165000E9F42091FE012A9DC0012B9D900D1124DB
:10166000B6010E943025462F8091FB01881F8827F4
:10167000881F9091FC01592F550F97FB992790F9DE
:101680009E016091FD01852B0E949607EF0C81E081
:10169000A81AB10899F60F5F1F4F23960330110562
:1016A00031F60E94280880914A0191E0F91212C097
:1016B00081110EC082E080934A01DF91CF911F918A
:1016C0000F91FF90EF90DF90CF90BF90AF90089573
:1016D0008150F1CF90E00196B8010E943025EBCF08
:1016E000DF92EF92FF920F931F93CF93DF93CDB7CB
:1016F000DEB729970FB6F894DEBF0FBECDBF182F07
:1017000080914801909149010E942519E12FF0E054
:10171000E45DFE4FE491E817190611F008F06EC081
:101720000E94191990934901809348018E010F5F1F
:101730001F4FF12CE12CF801118210821282D12C62
:101740009091000180914701D99E800D1124833032
:101750000CF082E087FD80E0082E000C990BE81663
:10176000F906A1F48091FB01881F8827881F9091BA
:10177000FC01592F550F97FB992790F9980140913B
:10178000FE016091FD01852B0E949607D394F7E03E
:10179000DF12D6CF8FEFE81AF80A0D5F1F4FE3E094
:1017A000EE16F10441F68A818093040289818093C8
:1017B00003028B81809305028D81809307028C81C7
:1017C000809306028E8180930802888580930A02A6
:1017D0008F8180930902898580930B020E942808DB
:1017E00090910001809147019130D1F48A3FA4F497
:1017F00089EF809347018FEF8093000129960FB600
:10180000F894DEBF0FBECDBFDF91CF911F910F9136
:10181000FF90EF90DF900895815080934701EECFC5
:101820008A302CF089E08093470181E0E5CF8F5F1B
:10183000F4CFFF920F931F93CF93DF9380914501D5
:10184000909146010E942519883E9340C8F10E945C
:10185000191990934601809345018091430190911D
:10186000440101968170992790934401809343012C
:101870008C01000F111F080F191FD0E0C0E030E5E8
:10188000F32E9E012D5F3D4FC8018C0F9D1F81706F
:1018900099274091FE016091FD01FC01FE9EC0016F
:1018A000FF9E900D11240E9496072396C930D10502
:1018B00041F7DF91CF911F910F91FF900C94280871
:1018C000DF91CF911F910F91FF9008958091580162
:1018D000882371F18091FB0186958F739EE3980FA9
:1018E0009F73943018F482500C942B0A9AE3980F4B
:1018F0009F73933018F486500C94600A97E3980F06
:101900009F73963018F489500C94900A91E3980FC5
:101910009F73963018F48F500C94E80A9BE2980F4E
:101920009F73933018F485510C94700B0C94190C20
:10193000089590935F0180935E010895E0915E01A8
:10194000F0915F01309721F00190F081E02D099432
:1019500080E00895E0915E01F0915F01309721F001
:101960000280F381E02D09940895E0915E01F091E9
:101970005F01309721F00480F581E02D09940895EE
:1019800020915C0130915D012817390771F0909327
:101990005D0180935C01E0915E01F0915F01309701
:1019A00021F00680F781E02D0994089520915A01D5
:1019B00030915B012817390771F090935B01809398
:1019C0005A01E0915E01F0915F01309721F00084AF
:1019D000F185E02D0994089508950C94EC0C0E9473
:1019E00010190E94D0060E94CF190C94C609BF920C
:1019F000CF92DF92EF92FF920F931F93CF93DF93DB
:101A0000CDB7DEB72A970FB6F894DEBF0FBECDBFB5
:101A10000E94E90681E6C82E81E0D82E10E000E0A1
:101A2000B02E802F0E945A07F82EF601E1906F0128
:101A3000E81609F453C08091CE0181FD0E94600731
:101A4000EF24E0FC48C0E1FE49C091E081E09E83C4
:101A5000BF8221E030E0690102C0CC0CDD1C8A9518
:101A6000E2F78F2D90E08C219D21892B09F420E055
:101A700028870E9419198160782F9A8789874E815B
:101A80005F8168858A850E94920DF801EF59FE4FAB
:101A90008081C826C0820E94521C0E949E0C909198
:101AA0006001891779F10E949E0C809360012A964B
:101AB0000FB6F894DEBF0FBECDBFDF91CF911F915F
:101AC0000F91FF90EF90DF90CF90BF900C946D043A
:101AD00001E010E0A5CF90E080E0B9CF0130110522
:101AE000B9F78FEF89838A831B820E94191981605D
:101AF000782F9D838C8349815A816B818D810E94CF
:101B0000920DC9CF2A960FB6F894DEBF0FBECDBF97
:101B1000DF91CF911F910F91FF90EF90DF90CF90C9
:101B2000BF900895CF93DF93CDB7DEB72B970FB655
:101B3000F894DEBF0FBECDBF4F83588769877A8781
:101B40008B871E821D8285E0FE013796DE0111968D
:101B500001900D928A95E1F749815A816B817C81D0
:101B60008D819E812B960FB6F894DEBF0FBECDBF40
:101B7000DF91CF910C940F14882309F4D8C08238D8
:101B800071F40E949E0C81FDD2C089E30E9460170F
:101B90000E94281889E30E949D170C942818833806
:101BA00059F40E949E0C80FDC2C083E50E9460171C
:101BB0000E94281883E5EFCF843859F40E949E0CC8
:101BC00082FDB5C087E40E9460170E94281887E450
:101BD000E2CF9CEF980F913A18F40E946017DDCF86
:101BE00090E2980F983050F4877091E001C0990FFF
:101BF0008A95EAF7892F0E94DF17CFCF9BE5980FD0
:101C0000933070F4853A31F0863A39F083E890E009
:101C10000C94C00C81E890E0FBCF82E890E0F8CF14
:101C200098E5980F953108F082C0883A09F440C0D1
:101C3000893A09F440C08A3A09F440C08B3A09F461
:101C400040C08C3A09F440C08B3B09F440C08C3B47
:101C500009F440C08D3A09F440C0803B09F440C00B
:101C60008E3A09F440C08F3A09F440C0813B09F430
:101C700040C0823B09F440C0833B09F440C0843B30
:101C800009F440C0853B09F440C0863B09F440C0DC
:101C9000873B09F440C0883B09F440C0893B09F404
:101CA00040C08A3B09F440C090E080E00C94D60C20
:101CB00082EE90E0FBCF89EE90E0F8CF8AEE90E0E4
:101CC000F5CF85EB90E0F2CF86EB90E0EFCF83EBA2
:101CD00090E0ECCF84EB90E0E9CF87EB90E0E6CFAB
:101CE0008CEC90E0E3CF8DEC90E0E0CF83E891E0E6
:101CF000DDCF8AE891E0DACF82E991E0D7CF84E9BD
:101D000091E0D4CF81E292E0D1CF83E292E0CECFD6
:101D100084E292E0CBCF85E292E0C8CF86E292E007
:101D2000C5CF87E292E0C2CF8AE292E0BFCF0895AA
:101D3000882309F44BC0823871F40E949E0C81FF05
:101D400045C089E30E9460170E94281889E30E9419
:101D50009D170C942818833859F40E949E0C80FF1C
:101D600035C083E50E9460170E94281883E5EFCFF5
:101D7000843859F40E949E0C82FF28C087E40E9498
:101D800060170E94281887E4E2CF9CEF980F913AE1
:101D9000F0F290E2980F983050F4877091E001C013
:101DA000990F8A95EAF7892F0E94E517D2CF9BE514
:101DB000980F933020F490E080E00C94C00C885A87
:101DC000853120F490E080E00C94D60C08958823AF
:101DD00021F00E94DF170C9428180895882321F021
:101DE0000E94E5170C94281808958F929F92AF9245
:101DF000BF92DF92EF92FF920F931F93CF93DF93E7
:101E00007C01D62FC72FFC01058102950F7012812E
:101E100011110E94FE170E945917D82E882371F0C5
:101E2000112321F180E28D0F883000F182E00E94C1
:101E300043170E94591791E0D82ED926EC2FE2952E
:101E4000EF70F0E0EA5DF04F0C944425380F380F46
:101E5000880F880FCA0FE60F650F650FF10F650F2A
:101E600089108910FC10650F650F0511D12CE6CF84
:101E70000C2F0F70C07F11F00295007F1123A9F085
:101E8000002359F080E28D0F883010F0D11109C085
:101E9000802F0E94DF170E9428188D2F0E94BC0DF2
:101EA00014C0802F0E94F017F6CF8D2F0E94980E3D
:101EB000002359F080E28D0F883010F0D11124C03A
:101EC000802F0E94E5170E942818DD2009F4A4C184
:101ED0000E94361780FDA0C1F70112820E943017C0
:101EE0000E94AE15C7010E9418110E943017DF91A1
:101EF000CF911F910F91FF90EF90DF90BF90AF9027
:101F00009F908F900C94CF15802F0E94F617DBCFF7
:101F1000FC2FFF70BF2EC07FC03219F0B29480EF4B
:101F2000B822DD2369F0D13029F1112369F10023B2
:101F300059F0F701858180FFB0CF8F70858304C091
:101F4000112361F0011104C08B2D0E94E70EBDCF5B
:101F50008B2D0130D1F70E941218B7CF011106C0A6
:101F60000E9415188B2D0E94EE0EAFCF013009F4A0
:101F7000ACCFF6CF112321F0063008F0A6CFE4CF86
:101F8000053008F0A2CFEECF002361F38D2F0E9421
:101F9000980E9BCF8C2F86958695837069F0813043
:101FA00009F093CF8D2F9C2F9370111102C090E0F8
:101FB00080E00E94D60C89CF8D2F9C2F9370111139
:101FC00002C090E080E00E94C00C7FCF8D2F1123D3
:101FD00029F00E945B1B0E94471C77CF0E94C31B05
:101FE000FACF8C2F837009F047C011116ECF2D2FBF
:101FF000229526952770220F220F6D2F6F70862E47
:10200000912CB12CA12C022E04C0880C991CAA1C66
:10201000BB1C0A94D2F760E070E0CB01D4FF0FC084
:102020006FE070E080E090E004C0660F771F881FCB
:10203000991F2A95D2F76095709580959095C695D1
:10204000C695C370C23051F080F4682979298A2975
:102050009B29C13071F00E94571537CF6829792923
:102060008A299B290E94731530CF0E945715C501FC
:10207000B4010E943B1529CF8695112311F08C2FB6
:102080008170882309F421CF2D2F22952695277062
:10209000220F220F6D2F6F70862E912CB12CA12C48
:1020A000022E04C0880C991CAA1CBB1C0A94D2F7EF
:1020B00060E070E0CB01D4FF0FC06FE070E080E023
:1020C00090E004C0660F771F881F991F2A95D2F7EA
:1020D0006095709580959095C695C695C370C230F1
:1020E00051F080F4682979298A299B29C13071F03F
:1020F0000E943116EACE682979298A299B290E94F3
:102100004D16E3CE0E943116C501B4010E9415168A
:10211000DCCEE0E2ED0FE53108F062C0F0E0ED5614
:10212000FF4E0C944425A810A810A810A810A810C1
:10213000A810A810A810A810A810A810A810A810DF
:10214000A810A810A810B510C310CA10D110DB1029
:10215000DF708C2F8F71112321F00E94AE158D2F0F
:10216000F4CE0E94CF158D2FFECE112341F0053005
:1021700008F0ABCE8C2F8F710E94F415A6CE0630DE
:1021800008F0A3CEF7CF8C2F8F71112339F00E9466
:10219000AE159BCE8C2F8F711123C9F30E94CF15E2
:1021A00094CE112329F08C2F8F710E9499158DCE1A
:1021B0000E948F158ACE112349F0CF718C2F0E9477
:1021C000AE1563E08C2F0E943A177FCE81E00E940B
:1021D0004317023008F479CE82E00E94431775CE8F
:1021E000112329F0011159CE8C2F8F71D0CF0111FD
:1021F000CDCE8C2F8F71D2CF4C2F4F706D2FC7014A
:102200000E94BB020E94B81460CE4C2F4F706D2FFD
:10221000C7010E946F0459CEDF91CF911F910F919A
:10222000FF90EF90DF90BF90AF909F908F900895B8
:102230000F931F93CF93DF93EC01988189812B81BA
:102240003C81232B39F08F3F19F481E09F3F19F037
:1022500080E001C081E080FD17C0CE010E94D40261
:10226000882391F0688179818A810E940C178C0102
:102270000E9469160E943015B801CE01DF91CF91FE
:102280001F910F910C94F50EDF91CF911F910F913B
:1022900008950E94FE170E940F180E94D1170E94F5
:1022A00028180E94F41C0E94471C90E080E00E94C5
:1022B000C00C90E080E00C94D60C0E94ED170C94BA
:1022C00049110E940217E92FE295EF70E250EE30BB
:1022D000E0F4F0E0E259FE4E0C9444257C117C11B0
:1022E0008511851187118511851185117C117C114E
:1022F0008C11851185118C11803F19F020F4803EDE
:1023000020F481E00895843FE1F380E00895803E69
:10231000C0F3813FD1F7F5CF93FB882780F908956B
:10232000CF93DF9300D000D01F92CDB7DEB70F90D0
:102330000F900F900F900F90DF91CF910895CF9352
:10234000DF9300D000D000D0CDB7DEB726960FB611
:10235000F894DEBF0FBECDBFDF91CF9108951F93DC
:10236000CF93DF93C091640116E0809165018C13D7
:1023700004C0DF91CF911F910895D0E01C9FF00120
:102380001D9FF00D1124EA59FE4F40815181628159
:102390007381848195810E949F112196C770E5CF3A
:1023A0004091960150919701609198017091990127
:1023B00080919A0190919B010C949F111F93CF9350
:1023C000DF9380919B01807FD1F4809198018823D5
:1023D000B1F080916401D0916501B0919601C091F6
:1023E00097014091990150919A01A1E0BF3F09F0F6
:1023F000A0E0BA016095709516E0D81304C0DF9193
:10240000CF911F91089521E04115510521F02A2F08
:10241000CF3F09F020E090E020FD38C0189FF00188
:10242000199FF00D1124EA59FE4F21812C132EC063
:1024300020812B132BC02281211128C023813481BC
:102440002417350700F1241B350B283C3105F0F427
:1024500020919B012F70206120939B0126E0289FF3
:10246000F001299FF00D1124E559FE4F80818F70F6
:102470008061808386E991E00E941811DF91CF91FD
:102480001F910C94AF11260F371FDFCF0196877075
:10249000B4CFAF92BF92CF92DF92EF92FF920F93A1
:1024A0001F93CF93DF93CDB7DEB761970FB6F89444
:1024B000DEBF0FBECDBF8C0185E0F801DE011D96A9
:1024C00001900D928A95E1F7D8014C9111965C919B
:1024D00011971296EC90309196016091970180913E
:1024E000990190919A0121E0009731F06F3F19F422
:1024F00021E03F3F09F020E0B22FB170BB2E20FD5C
:1025000080C1F801C380D480A0909801AA2009F46A
:1025100027C1C816D906D0F1D601A81BB90BCD0129
:10252000FF24F394883C910508F0F12C80919B01E5
:10253000982F907FFF2009F4CAC0911187C0FE2C0C
:10254000651329C0341327C0E11025C08F70806146
:1025500080939B010E94D01186E991E00E9418119E
:1025600080919B01F80185838F2D61960FB6F894B9
:10257000DEBF0FBECDBFDF91CF911F910F91FF90B6
:10258000EF90DF90CF90BF90AF9008958095909599
:102590008C0D9D1DC5CF81E0CD2831F05F3F19F432
:1025A00081E04F3F09F080E080FD24C081E08E256E
:1025B000F82FF170DF2E80FF3FC0809164012091E1
:1025C000650136E0821318C04D875E878D859E8534
:1025D0000E940217292F22952F70223008F12430F3
:1025E00030F59F7009F1D80115969C91907FE1F428
:1025F000FB2CBACF80E0DCCF90E0389FF001399F10
:10260000F00D1124EA59FE4F6181561306C0608116
:10261000461303C062816E110FC001968770D2CF3E
:102620009F7011F0882321F3805E883008F3C80181
:102630000E941811BD2CDCCFEE2009F495CF8091BB
:102640009B01816080939B01F12C8ECF651312C09A
:10265000341310C0E1100EC0F8018583C8010E9438
:10266000181186E0F801A6E9B1E001900D928A9573
:10267000E1F741C04D875E878D859E850E9461117F
:10268000882309F4C8C0EE2009F4C5C080919B01DD
:10269000803270F0209196013091970138872F8316
:1026A0001986DB86CA868C87CE0107960E94181190
:1026B00086E0F801A6E9B1E001900D928A95E1F774
:1026C0000E94DE110E94D011FF24F3944DCF91118E
:1026D00015C07C2DD98AC88A6E2D89890E949011D7
:1026E00086E991E00E94181186E0E6E9F1E0DF0159
:1026F0001D928A95E9F70E94D01136CF651312C05A
:10270000341310C0E1100EC0F8018583C8010E9487
:102710001811E6E9F1E086E0DF011D928A95E9F7FC
:10272000FA2C22CF4D875E878D859E850E94611190
:10273000882309F470C0EE2009F46DC080919B01DC
:10274000803208F4B5CF20919601309197013A83F9
:1027500029831B82DD82CC828E83CE010196A6CF97
:10276000C816D90638F1F601E81BF90BCF01F12C98
:10277000883C910508F03DC0FE2CEE2009F44BC0CA
:10278000651326C0341324C080919B0180FD17C0BF
:10279000982F907FA1F0D80115968C931597903FB4
:1027A00009F45CCF982F907F905F8F70892B1596DE
:1027B0008C9354CF809590958C0D9D1DD8CF86E03D
:1027C000F801A6E9B1E001900D928A95E1F7CCCE2F
:1027D0004D875E878D859E850E946111811168CF2E
:1027E00080919B01816080939B01C8010E94181118
:1027F000BBCE7C2DD98AC88A6E2D89890E94901102
:1028000073CFEE2041F04D875E878D859E850E94B7
:10281000611181114DCFC8010E94181155CF1F932E
:10282000CF93DF93CDB7DEB72C970FB6F894DEBF0A
:102830000FBECDBF4F83588769877A878B879C8768
:10284000CE0107960E944912882309F442C09F8155
:1028500088852A853B85232B39F08F3F19F481E049
:102860009F3F19F080E001C081E080FD08C04F81EA
:10287000588569857A858B859C850E949F1116E015
:102880008091640190916501891709F467C0819F67
:10289000C00111248A599E4F0E944912882309F4CD
:1028A0005DC0E09164011E9FF0011124EA59FE4FC2
:1028B0004081518162817381848195810E949F1141
:1028C0008091640190E0019687709927809364015C
:1028D000D7CF86E0FE013796DE01119601900D926A
:1028E0008A95E1F79F8188852A853B85232B39F0DE
:1028F0008F3F19F481E09F3F19F080E001C081E033
:1029000080FDBDCF2091650130E0C901019687703F
:102910009927409164014817190699F096E0929F13
:10292000D001939FB00D1124AA59BE4FFE013196DC
:1029300001900D929A95E1F7809365010E94AF1185
:102940009ECF0E945D11109265011092640186E095
:10295000E6E9F1E0DF011D928A95E9F72C960FB6C2
:10296000F894DEBF0FBECDBFDF91CF911F910895C8
:10297000EF92FF920F931F93CF93DF938C01892BDC
:1029800081F0F12CEE24E394E8012196F801849182
:10299000843770F4843008F05FC08130B1F0823049
:1029A000A1F1DF91CF911F910F91FF90EF900895CA
:1029B000853709F44CC008F43DC09CE7980F903768
:1029C00080F78F770E94980E49C00E5F1F4FFE015F
:1029D000849190E2980F983060F48770FE2D01C0CA
:1029E000FF0F8A95EAF78F2F0E9401180E9428187E
:1029F00002C00E94BC0D8F2D815030F2EFE9FFE044
:102A00003197F1F700C00000F7CF0E5F1F4FFE01B6
:102A1000849190E2980F983050F48770FE2D01C099
:102A2000FF0F8A95EAF78F2F0E940718DFCF0E94C9
:102A3000980EE1CF0E5F1F4FFE01C491C150D8F236
:102A40008FE99FE00197F1F700C00000F7CF0E5F1C
:102A50001F4FFE01F490CFCF0E94BC0D8E01CBCF53
:102A600008956093A5017093A6018093A7019093A8
:102A7000A8010C9449110F931F930091A501109187
:102A8000A6012091A7013091A801DC01CB01802B88
:102A9000912BA22BB32B8093A5019093A601A09319
:102AA000A701B093A8011F910F910C9449110F93A6
:102AB0001F930091A5011091A6012091A7013091CB
:102AC000A801DC01CB0180239123A223B3238093AF
:102AD000A5019093A601A093A701B093A8011F910F
:102AE0000F910C9449110F931F930091A501109120
:102AF000A6012091A7013091A801DC01CB0180271C
:102B00009127A227B3278093A5019093A601A093B4
:102B1000A701B093A8011F910F910C944911109235
:102B2000A1011092A2011092A3011092A4010C9491
:102B3000491141E050E060E070E004C0440F551FCF
:102B4000661F771F8A95D2F74093A1015093A20187
:102B50006093A3017093A4010C94491141E050E0EB
:102B600060E070E004C0440F551F661F771F8A9510
:102B7000D2F78091A1019091A201A091A301B091FF
:102B8000A401842B952BA62BB72B8093A1019093A6
:102B9000A201A093A301B093A4010C94491141E0B8
:102BA00050E060E070E004C0440F551F661F771FBF
:102BB0008A95D2F740955095609570958091A101C6
:102BC0009091A201A091A301B091A4018423952327
:102BD000A623B7238093A1019093A201A093A30100
:102BE000B093A4010C94491141E050E060E070E022
:102BF00004C0440F551F661F771F8A95D2F7809136
:102C0000A1019091A201A091A301B091A4018427F8
:102C10009527A627B7278093A1019093A201A0939F
:102C2000A301B093A4010C9449110F931F93009139
:102C3000A1011091A2012091A3013091A401DC0116
:102C4000CB01802B912BA22BB32B8093A1019093CE
:102C5000A201A093A301B093A4011F910F910C9422
:102C600049110F931F930091A1011091A20120918E
:102C7000A3013091A401DC01CB0180239123A22385
:102C8000B3238093A1019093A201A093A301B093D9
:102C9000A4011F910F910C9449110F931F93009160
:102CA000A1011091A2012091A3013091A401DC01A6
:102CB000CB0180279127A227B3278093A10190936E
:102CC000A201A093A301B093A4011F910F910C94B2
:102CD00049110895990F890F982F977071E001C0DD
:102CE000770F9A95EAF786958695869525E0829FD7
:102CF000C001112450E040E0A62FB0E0FC01E40F39
:102D0000F51FE456FE4F60819D01042E02C03695EA
:102D100027950A94E2F72170219526272723262755
:102D200020834F5F5F4F4530510541F70895990F5C
:102D3000890F982F977086958695869525E0829FB6
:102D4000A001112470E060E080E0FA01E60FF71FB7
:102D5000E456FE4F208130E0092E02C036952795BB
:102D60000A94E2F721703327062E01C0220F0A943D
:102D7000EAF7822B6F5F7F4F6530710531F7089559
:102D8000BF92CF92DF92EF92FF920F931F93CF9358
:102D9000DF938C01C090A101D090A201E090A3012B
:102DA000F090A4018091A5019091A601A091A701A6
:102DB000B091A801C82AD92AEA2AFB2ACFE1D0E09B
:102DC000BC2ED701C6010C2E04C0B695A7959795C9
:102DD00087950A94D2F780FD0EC0219788F7B12C11
:102DE0008B2DDF91CF911F910F91FF90EF90DF908E
:102DF000CF90BF900895B8018C2F0E94890401974D
:102E000061F3EECFCF93DF93EC010E94C016BE01B9
:102E1000DF91CF910C9489041F93CF93DF93EB0143
:102E200090916301992331F0CB01DF91CF911F91F4
:102E30000C940217882379F0CB010E94C016182F3A
:102E4000682FCE010E946A16BE01812FDF91CF91BB
:102E50001F910C948904CB010E949716182FF4CF70
:102E60008091A90185958595859508958091A90101
:102E70008770089598E0899F90011124622B6093D8
:102E8000A9010C94AE159091A90180958923809396
:102E9000A901282F277061F4282F082E000C330B6E
:102EA0009217130629F08595859585950C94CF1575
:102EB00008959091A901977081E009F480E0089548
:102EC000909113019923E1F09091100297FF18C09F
:102ED000E82FE695E695E695EF3139F1209101016D
:102EE00030910201E20FF32FF11D877021E030E0F5
:102EF00001C0220F8A95EAF78181822B8183089590
:102F00002091010130910201F90132969FEF40E0DA
:102F10005191851751F09F3F19F4511101C0942F21
:102F20004F5F4E31A9F79F3F09F40895290F311DD6
:102F300097FD3A95F90182830895909113019923A1
:102F4000F1F09091100297FF1AC0E82FE695E695F0
:102F5000E695EF3129F12091010130910201E20F54
:102F6000F32FF11D282F277081E090E001C0880F1A
:102F70002A95EAF78095918189238183089520918C
:102F8000010130910201F9013296205E3F4F91918B
:102F9000891303C0DF0111971C92E217F307B9F7F9
:102FA000089581E090E0E0910101F0910201E80FC5
:102FB000F91F1082019680329105A9F7089590912A
:102FC000CD01892B8093CD010895982F9095809104
:102FD000CD0189238093CD0108951092CD010895EC
:102FE0009091CC01892B8093CC010895982F9095D6
:102FF0008091CC0189238093CC0108951092CC015B
:1030000008959091CB01892B8093CB010895982F3F
:1030100090958091CB0189238093CB0108951092E4
:10302000CB0108958093AA0108951092AA010895F2
:103030002091010130910201F9013196205E3F4F4C
:1030400080E0919191118F5FE217F307D1F7089516
:10305000E0910101F09102018091CD018083E09126
:103060000101F091020180819091CC01892B808334
:10307000E0910101F091020180819091CB01892BB7
:1030800080839091AA01992361F0E0910101F09170
:1030900002018081892B80830E941818811110926F
:1030A000AA0180910101909102010C94AA0C6DEE8D
:1030B0007EEF90E080E00E947C2560E082E090E07E
:1030C0000E945E2560E083E090E00E945E2560E063
:1030D00084E090E00E945E2560E085E090E00E9440
:1030E0005E2540E050E0BA0188E090E00C94702545
:1030F00090E080E00E94582521E08D3E9E4F09F02F
:1031000020E0822F089582E090E00C944A25682FF9
:1031100082E090E00C945E2583E090E00C944A25D8
:10312000682F83E090E00C945E2584E090E00C949E
:103130004A25682F84E090E00C945E258091160269
:10314000843039F11092CF0188E190E020E40FB68D
:10315000F894A895809360000FBE2093600080E0F3
:103160000E946D0483B7817F846083BF83B78160D1
:1031700083BF7894889583B78E7F83BF0FB6F8940A
:10318000A895809160008861809360001092600033
:103190000FBE0895089508950E94CA180E94E90676
:1031A0000E94CB1880E00E945A0791E0811107C06D
:1031B00081E00E945A0791E0811101C090E0892FBF
:1031C00008950E945D110E949E0C0C946D041F9244
:1031D0000F920FB60F9211248F939F93AF93BF93CB
:1031E0008091CF01811113C080910C0290910D024A
:1031F000A0910E02B0910F024196A11DB11D8093C6
:103200000C0290930D02A0930E02B0930F02BF9197
:10321000AF919F918F910F900FBE0F901F901895B7
:1032200082E084BD93E095BD9AEF97BD80936E00D8
:1032300008952FB7F89480910C0290910D02A091FF
:103240000E02B0910F022FBF0895CF92DF92EF923E
:10325000FF920F931F932FB7F89440910C02509157
:103260000D0260910E0270910F022FBF6A017B0167
:10327000EE24FF248C0130E020E0C016D106E206E7
:10328000F30650F0481B590BCA011F910F91FF9094
:10329000EF90DF90CF90089541505109F3CF1F92E6
:1032A0000F920FB60F9211248F939F93AF93BF93FA
:1032B00080910C0290910D02A0910E02B0910F022C
:1032C0000196A11DB11D80930C0290930D02A09355
:1032D0000E02B0930F02BF91AF919F918F910F900B
:1032E0000FBE0F901F9018950E94F020F8942FEFBA
:1032F00087EA91E6215080409040E1F700C000004D
:1033000087E090EBDC0180931F0290932002A09352
:103310002102B093220288E19CE00FB6F894A895B0
:10332000809360000FBE90936000FFCF0F931F93B8
:10333000CF93DF93C0E0082F10E08C2F0E945A0734
:10334000D82F80FF08C060E07C2F80E00E947004CE
:1033500008171907A1F0D1FD0AC0C13031F480E08F
:10336000DF91CF911F910F910895C1E0E6CF61E009
:103370007C2F80E00E9470040817190771F781E024
:10338000EFCFCF93C82F8CE20E949619882321F0AB
:103390008C2FCF910C94961980E0CF910895CF9304
:1033A0000E947818811102C00E945718C5E608C013
:1033B0000E94E9068FE39CE90197F1F700C0000045
:1033C000C150B1F789E20E94C1198111EFC08AE2B0
:1033D0000E94C11981110E94571885E00E94C119ED
:1033E00081110E9474190E9483188093CE0187E096
:1033F0000E94C119882371F08BE10E94C1198823B2
:1034000009F4B1C09091CE01892F8D7F91FF826028
:103410008093CE018091CE010E9487180E9495185A
:1034200090E0909311028093100280EE0E94C119E7
:10343000882341F090911002892F8E7F90FF816048
:103440008093100289E30E94C119882341F0909172
:103450001002892F8D7F91FF82608093100282EE8F
:103460000E94C119882341F090911002892F8B7F0F
:1034700092FF84608093100286EE0E94C119882317
:1034800041F090911002892F877F93FF886080938D
:10349000100283EE0E94C119882341F0909110021E
:1034A000892F8F7E94FF80618093100285E30E94B4
:1034B000C119882341F090911002892F8F7D95FFCB
:1034C00080628093100281E30E94C119882341F039
:1034D00090911002892F8F7B96FF80648093100259
:1034E00081E10E94C119882341F090911002892F37
:1034F00097FB87F9805880931002809110020E94F8
:10350000991887E20E94C119C82F8EE10E94C11943
:103510008111C2608FE10E94C1198111C46080E2F3
:103520000E94C1198111C86081E20E94C1198111F4
:10353000C06182E20E94C1198111C06283E20E94CF
:10354000C1198111C06484E20E94C119882341F12C
:10355000C0688C2F0E9490186C2F70E090E080E083
:10356000CF910C9431158EE00E94C119882339F057
:103570009091CE01892F8B7F92FF846049CF80E1AB
:103580000E94C1199091CE01882329F0892F877F4D
:1035900093FF88603DCF892F8E7F90FF816038CF69
:1035A000C111D7CF0E948C18682FD7CFCF91089523
:1035B0008091D20180FF12C06091060185E0689F72
:1035C000B0011124759567957595679560387105FB
:1035D000A8F561157105A1F1862F089581FF09C035
:1035E0006091060185E0689FB0011124759567958B
:1035F000EDCF82FF07C06091060185E0689FB001B2
:103600001124E4CF2091D3012223A9F09091050148
:103610006091060185E0689FB00111242917B0F67A
:10362000269FA001279F500D1124692F70E0CA0129
:103630000E943025CBCF65E070E0CECF8FE70895B4
:1036400081E008958091D20180FF0CC06091040157
:1036500070E075956795759567956115710549F1E8
:10366000862F089581FF06C06091040170E0759572
:103670006795F3CF6091040182FD0BC09091D30157
:103680009923A1F06091030180910401961738F00D
:10369000682F70E06038710500F38FE70895899F07
:1036A000C001112470E00E943025F4CF61E070E089
:1036B000D7CF81E00895803F31F40E94D81A8195D8
:1036C0008093D6010895813F19F40E94D81AF8CF4B
:1036D000823F31F40E94D81A81958093D5010895D4
:1036E000833F19F40E94D81AF8CF893F29F40E9429
:1036F000221B8093D70108958A3F21F40E94221B48
:103700008195F7CF8B3F31F40E94221B81958093E6
:10371000D80108958C3F19F40E94221BF8CF843FF2
:1037200031F48091D40181608093D4010895853F64
:1037300021F48091D4018260F7CF863F21F48091FB
:10374000D4018460F1CF873F21F48091D401886057
:10375000EBCF883F21F48091D4018061E5CF8D3F8C
:1037600031F48091D20181608093D20108958E3F1F
:1037700021F48091D2018260F7CF8F3FB9F7809119
:10378000D2018460F1CF803FC1F48091D60187FDE2
:103790001092D6018091D50181110EC08091D60181
:1037A00081110AC08091D701811106C08091D80192
:1037B000811102C01092D3010895813F29F48091B4
:1037C000D60118162CF3E6CF9091D501823F29F44B
:1037D00097FFE0CF1092D501DDCF833F19F4191682
:1037E000CCF3D8CF893F39F48091D701181694F6DD
:1037F0001092D701CFCF8A3F29F48091D70187FF5C
:10380000C9CFF6CF8B3F39F48091D80187FFC2CF63
:103810001092D801BFCF8C3F29F48091D80118169F
:10382000BCF3B8CF843F31F48091D4018E7F809374
:10383000D401B0CF853F21F48091D4018D7FF7CFA3
:10384000863F21F48091D4018B7FF1CF873F21F413
:103850008091D401877FEBCF883F21F48091D40100
:103860008F7EE5CF8D3F31F48091D2018E7F8093A2
:10387000D20190CF8E3F21F48091D2018D7FF7CF7E
:103880008F3F09F087CF8091D2018B7FF0CF84EDFD
:1038900091E00E94B50C0E9419199093D101809378
:1038A000D00108951F93CF93DF938091D001909121
:1038B000D1010E942519AC019091D30120910701FB
:1038C00030E0911106C0209108018AE0289F900104
:1038D00011244217530780F08091D501C091D60181
:1038E0001091D701D091D80181110AC0C11178C0BF
:1038F000111176C0D11174C0DF91CF911F9108953D
:103900009F3F19F09F5F9093D301181624F40E94F3
:10391000D81A8093D5018091D50187FF05C00E94F8
:10392000D81A81958093D5011C1624F40E94D81AC8
:103930008093D6018091D60187FF05C00E94D81AD6
:1039400081958093D6016091D501662331F1C091B4
:10395000D601CC2311F1062E000C770B880B990BA6
:103960000E94232423E333E343E35FE30E9487249D
:103970000E94EB236093D5016C2FCC0F770B880B43
:10398000990B0E94232423E333E343E35FE30E9484
:1039900087240E94EB236093D601111624F40E9421
:1039A000221B8093D7018091D70187FF05C00E9419
:1039B000221B81958093D7011D1624F40E94221B9F
:1039C0008093D8018091D80187FF05C00E94221BF7
:1039D00081958093D801DF91CF911F910C94471C62
:1039E0009F3F09F08FCFA0CF85E0E4EDF1E0DF014C
:1039F0001D928A95E9F71092D3011092D201089591
:103A00008091F9010895CF93DF9300D01F92CDB735
:103A1000DEB79C0180911602843019F593E09983FA
:103A20003B832A839093E9008FEF9091E8008150C7
:103A300095FD06C095ED9A95F1F700008111F5CF3F
:103A40008091E80085FF0DC050E040E063E070E049
:103A5000CE0101960E94601F8091E8008E778093CE
:103A6000E8000F900F900F90DF91CF910895CF93C2
:103A7000DF9300D01F92CDB7DEB72091160224301D
:103A800031F522E02983805891099B838A8383E062
:103A90008093E9008FEF9091E800815095FD06C07A
:103AA00095ED9A95F1F700008111F5CF8091E8002E
:103AB00085FF0DC050E040E063E070E0CE0101966C
:103AC0000E94601F8091E8008E778093E8000F903D
:103AD0000F900F90DF91CF9108959C018091160275
:103AE0008430F9F482E08093E9009FEF8091E80050
:103AF000915085FD06C085ED8A95F1F70000911182
:103B0000F5CF8091E80085FF0CC050E040E065E013
:103B100070E0C9010E94601F8091E8008E77809359
:103B2000E8000895CF93DF93EC0180911602843072
:103B3000F1F4909113019923E9F09091100297FF0D
:103B400019C08093E9008FEF9091E800815095FDB6
:103B500006C095E19A95F1F700008111F5CF8091AB
:103B6000E80050E040E060E270E085FD1AC0DF91BF
:103B7000CF91089581E08093E9008FEF9091E80064
:103B8000815095FD06C095ED9A95F1F700008111E1
:103B9000F5CF8091E80085FFEACF50E040E068E093
:103BA00070E0CE010E94601F8091E8008E778093C4
:103BB000E80080E2FE01A9EDB1E001900D928A9546
:103BC000E1F7D5CF80911502811109C00E94F02044
:103BD0000E944D218091E20084608093E20008956C
:103BE000109215020895089508950C94E11842E08A
:103BF00061EC81E00E946E2042E061EC82E00E9474
:103C00006E2042E061EC83E00E946E2042E261ECB3
:103C100084E00C946E2080911802833009F455C022
:103C200030F4813071F1823009F491C008958A3006
:103C300009F47DC08B3009F463C0893009F044C0B9
:103C400080911702813209F03FC080911B02909150
:103C50001C02009711F00397B9F58091E800877F67
:103C60008093E8008091E80082FF2AC08091F100F3
:103C70008093F9018091E8008B778093E8000C94A1
:103C8000A22080911702813AF9F48091E800877FA1
:103C90008093E80080911B0290911C02892B61F4B3
:103CA00060E289ED91E070E00E94AF1F8091E80032
:103CB0008B778093E800089560E090E080E0F3CF98
:103CC000809116028111CECF089580911702813A1A
:103CD000D9F780911B0290911C02892BA9F7809142
:103CE000E800877F8093E8008091E80080FFFCCFA8
:103CF000809113018093F1008091E8008E77BDCF11
:103D000080911702813201F780911B0290911C0271
:103D1000892BD1F68091E800877F8093E8000E948C
:103D2000A22080911902809313010C945D1180915F
:103D30001702813249F68091E800877F8093E8007E
:103D40000E94A22080911A028093FA010895809126
:103D50001702813A09F0B8CF8091E800877F8093FD
:103D6000E8008091E80080FFFCCF8091FA01C2CF8B
:103D700084B7877F84BF0FB6F894A89580916000C0
:103D8000886180936000109260000FBE80E880938D
:103D90006100109261000E94ED0C0E94F0200E94D0
:103DA0004D218091E20084608093E20078940E942B
:103DB000CF230E94EF0C89E091E00E94990C809142
:103DC0001602853029F00E94F70C0E94660CF7CF8E
:103DD0000E949E1880911402882389F30E94CC18B7
:103DE000882369F30E944A1FEACF292F3327233003
:103DF000310579F158F421303105F1F022303105E7
:103E000019F190E080E030E020E01AC02132310565
:103E100099F122323105A9F7643098F770E0FB017F
:103E2000EE0FFF1FE65EFE4F208131816A5E7E4FFE
:103E3000FB01808190E004C082E190E026ED33E058
:103E4000FA013183208308958DE690E029E633E07E
:103E5000F7CF99278130910561F028F0029789F614
:103E6000E9E3F3E002C0E5E6F3E0849190E09F012E
:103E7000E7CFEDE4F3E0F9CF643008F0C2CFE62FEE
:103E8000F0E0EE0FFF1FEE5DFE4F2081318189E0F3
:103E900090E0D6CF80E189BD82E189BD09B400FE02
:103EA000FDCF8091D8008F7D8093D8008091E00075
:103EB00082608093E0008091E00081FDFCCF089556
:103EC000AF92BF92CF92DF92FF920F931F93CF9347
:103ED000DF936C01EB018A010E94C120F82E811151
:103EE00023C00115110539F0F80180819181C81BAB
:103EF000D90BC80ED91EB12CA12C2097A9F0809106
:103F0000E80085FD22C08091E8008E778093E8006C
:103F100001151105A1F0F80180819181A80EB91E4B
:103F2000B182A08285E0F82E8F2DDF91CF911F9175
:103F30000F91FF90DF90CF90BF90AF9008950E94B7
:103F4000C1208823D1F2F82EEFCFF60181916F01C5
:103F50008093F1002197FFEFAF1ABF0ACECFFC018B
:103F600080911D0290911E0286179707A0F061159F
:103F7000710529F49091E8009E779093E80090E015
:103F80006115710551F4911108C08091E80082FF1C
:103F900035C080E00895BC01F2CF809116028823DD
:103FA000C9F18530C9F18091E80083FD31C080916D
:103FB000E80082FDEACF8091E80080FFE1CF209108
:103FC000F3008091F200322F282F6115710519F04E
:103FD0002830310558F091E02830310509F090E0A3
:103FE0002091E8002E772093E800CACF819180933A
:103FF000F100615071092F5F3F4FE7CF80911602AA
:10400000882341F0853041F08091E80083FFBDCFE7
:1040100081E0089582E0089583E00895FC01809195
:104020001D0290911E0286179707A0F06115710579
:1040300029F48091E8008E778093E80090E0611584
:10404000710551F4911108C08091E80082FF36C0DB
:1040500080E00895BC01F2CF809116028823D1F14F
:104060008530D1F18091E80083FD32C08091E80075
:1040700082FDEACF8091E80080FFE1CF2091F3003C
:104080008091F200322F282F6115710519F0283028
:10409000310558F091E02830310509F090E0809129
:1040A000E8008E778093E800CACF84918093F10076
:1040B0003196615071092F5F3F4FE6CF8091160214
:1040C000882341F0853041F08091E80083FFBCCF28
:1040D00081E0089582E0089583E00895982F973055
:1040E00028F08F708093E90081E008959093E900B3
:1040F000242F762F50E0981731F07091EC0020912A
:10410000ED005091F00021FD02C09F5FE8CF30919B
:10411000EB003E7F3093EB003091ED003D7F30931C
:10412000ED003091EB0031603093EB007093EC00C8
:104130002093ED005093F0002091EE0027FDE5CF95
:1041400080E008958091170287FF13C08091E800F6
:1041500082FF06C08091E8008B778093E80004C05E
:10416000809116028111F2CF089580911602882362
:10417000D9F38091E80080FFF8CF8091E8008E7736
:10418000ECCF2091E4003091E50085E69091EC00C1
:1041900090FF06C09091E80090FF06C080E008956F
:1041A0009091E80092FDFACF90911602992391F038
:1041B000953091F09091EB0095FD10C04091E40096
:1041C0005091E5002417350709F381509A01F1F663
:1041D00084E0089582E0089583E0089581E00895E1
:1041E0000E945E210E946621E0EEF0E08081816005
:1041F0008083E8EDF0E080818F77808319BCA7EDA4
:10420000B0E08C918E7F8C9380818F7E8083109222
:10421000150208950F931F93CF93DF930E945E21A1
:104220000E946621C8EDD0E088818F7788838881DD
:104230008068888388818F7D888319BC10921602DC
:1042400010921202109214021092130200EE10E06B
:10425000F80180818B7F808388818160888342E040
:1042600060E080E00E946E20E1EEF0E080818E7FD1
:104270008083E2EEF0E080818160808380818860CD
:104280008083F80180818E7F80838881806188832C
:10429000DF91CF911F910F910895E8EDF0E08081BB
:1042A0008F7E8083E7EDF0E080818160808384E011
:1042B00082BF81E0809315020C940A21E8EDF0E0C2
:1042C00080818E7F80831092E20008951092DA0040
:1042D0001092E10008951F920F920FB60F921124D1
:1042E0002F933F934F935F936F937F938F939F93FE
:1042F000AF93BF93EF93FF938091E10082FF0BC0D8
:104300008091E20082FF07C08091E1008B7F809363
:10431000E1000E94CE238091DA0080FF19C08091D5
:10432000D80080FF15C08091DA008E7F8093DA007C
:104330008091D90080FF94C080E189BD82E189BD70
:1043400009B400FEFDCF81E0809316020E94E21DB9
:104350008091E10080FF19C08091E20080FF15C0CC
:104360008091E2008E7F8093E2008091E200806184
:104370008093E2008091D80080628093D80019BCBD
:1043800085E0809316020E94F41D8091E10084FF75
:1043900029C08091E20084FF25C080E189BD82E1CF
:1043A00089BD09B400FEFDCF8091D8008F7D809338
:1043B000D8008091E1008F7E8093E1008091E2003F
:1043C0008F7E8093E2008091E20081608093E20022
:1043D00080911202882309F449C084E08093160278
:1043E0000E94F51D8091E10083FF29C08091E200C9
:1043F00083FF25C08091E100877F8093E10082E008
:1044000080931602109212028091E1008E7F8093B9
:10441000E1008091E2008E7F8093E2008091E200D3
:1044200080618093E20042E060E080E00E946E20C4
:104430008091F00088608093F0000E94F31DFF914E
:10444000EF91BF91AF919F918F917F916F915F910C
:104450004F913F912F910F900FBE0F901F90189585
:1044600019BC109216020E94F01D72CF8091E300D9
:1044700087FD02C081E0B2CF83E0B0CF1F920F92E0
:104480000FB60F9211242F933F934F935F936F9327
:104490007F938F939F93AF93BF93CF93EF93FF93AC
:1044A000C091E900CF708091EC001092E9008091FA
:1044B000F000877F8093F00078940E947A22109217
:1044C000E9008091F00088608093F000C093E900DB
:1044D000FF91EF91CF91BF91AF919F918F917F917C
:1044E0006F915F914F913F912F910F900FBE0F9061
:1044F0001F9018951F93CF93DF93CDB7DEB7AA9780
:104500000FB6F894DEBF0FBECDBFE7E1F2E08091B9
:10451000F100819322E0EF31F207C9F70E940B1EF0
:104520008091E80083FF42C08091170290911802A9
:104530009A3008F03BC0E92FF0E0EF55FD4D0C94A8
:104540004425AB22CF22D622CF22D6222A234C23A7
:10455000D622A123AE23803879F0823839F58091B4
:104560001B028F708093E9008091EB0085FB882708
:1045700080F91092E90006C0809113029091140214
:10458000911182609091E800977F9093E80080936A
:10459000F1001092F1008091E8008E772DC0282F55
:1045A0002D7F21F48823D1F0823059F18091E800E9
:1045B00083FF0AC08091E800877F8093E8008091A4
:1045C000EB0080628093EB00AA960FB6F894DEBFF2
:1045D0000FBECDBFDF91CF911F9108958091190239
:1045E000813021F7933009F080E08093140210921B
:1045F000E9008091E800877F8093E8000E94A22074
:10460000D5CF809119028111F2CF80911B028F705A
:1046100069F28093E9002091EB0020FFE8CF93300E
:1046200031F48091EB0080628093EB00E0CF9091B9
:10463000EB0090619093EB0021E030E001C0220F8D
:104640008A95EAF72093EA001092EA008091EB0045
:104650008860EACF8111AACF109119021F7780914B
:10466000E3008078812B8093E3008091E800877FCE
:104670008093E8000E94A2208091E80080FFFCCF98
:104680008091E30080688093E30083E0111101C012
:1046900082E0809316028ACF8058823008F086CF5D
:1046A0008091190290911A028C3D23E09207A1F5A6
:1046B00083E08A838AE289834FB7F894DE011396F8
:1046C00020E03EE051E2E32FF0E050935700E49108
:1046D00020FF03C0E295EF703F5FEF708E2F90E0F8
:1046E000EA30C0F0C7968D939D932F5F243159F720
:1046F0004FBF8091E800877F8093E8006AE270E016
:10470000CE0101960E94AF1F8091E8008B778093C5
:10471000E8004CCFC096E7CFAE014F5F5F4F60918E
:104720001B020E94F51EBC01892B09F43FCF90911A
:10473000E800977F9093E80089819A810E940E207B
:10474000E3CF803809F032CF8091E800877F8093F3
:10475000E800809112028093F1001DCF811126CFD5
:1047600090911902923008F021CF8091E800877F64
:104770008093E800909312020E94A220809112027E
:10478000882331F084E0809316020E94F71D0ECF3B
:104790008091E30087FDF6CF81E0F5CF0895CF93B8
:1047A00080911602882399F0C091E900CF70809122
:1047B000EC0080FD0EC080E0C82B1092E9008091D3
:1047C000E80083FD0E947A22CF70C093E900CF9168
:1047D000089580E8F1CF0E94F2236894B1110C94FF
:1047E000812408950E94662488F09F5798F0B92F7D
:1047F0009927B751B0F0E1F0660F771F881F991F16
:104800001AF0BA95C9F714C0B13091F00E94802413
:10481000B1E008950C948024672F782F8827B85F23
:1048200039F0B93FCCF3869577956795B395D9F76D
:104830003EF490958095709561957F4F8F4F9F4F77
:104840000895E89409C097FB3EF490958095709583
:1048500061957F4F8F4F9F4F9923A9F0F92F96E9CC
:10486000BB279395F695879577956795B795F11141
:10487000F8CFFAF4BB0F11F460FF1BC06F5F7F4FDE
:104880008F4F9F4F16C0882311F096E911C07723F0
:1048900021F09EE8872F762F05C0662371F096E8F9
:1048A000862F70E060E02AF09A95660F771F881FC8
:1048B000DAF7880F9695879597F9089557FD9058E0
:1048C000440F551F59F05F3F71F04795880F97FBD4
:1048D000991F61F09F3F79F087950895121613068E
:1048E0001406551FF2CF4695F1DF08C016161706BD
:1048F0001806991FF1CF86957105610508940895F2
:10490000E894BB2766277727CB0197F908950E9483
:104910009A240C940B250E94FD2438F00E94042553
:1049200020F0952311F00C94F4240C94FA24112413
:104930000C9481240E945E2470F3959FC1F3950F1F
:1049400050E0551F629FF001729FBB27F00DB11D13
:10495000639FAA27F00DB11DAA1F649F6627B00DA3
:10496000A11D661F829F2227B00DA11D621F739F8C
:10497000B00DA11D621F839FA00D611D221F749F9A
:104980003327A00D611D231F849F600D211D822FE1
:10499000762F6A2F11249F5750409AF0F1F0882308
:1049A0004AF0EE0FFF1FBB1F661F771F881F915035
:1049B0005040A9F79E3F510580F00C94F4240C94CC
:1049C00081245F3FE4F3983ED4F38695779567950D
:1049D000B795F795E7959F5FC1F7FE2B880F911D5F
:1049E0009695879597F9089597F99F6780E870E005
:1049F00060E008959FEF80EC089500240A94161655
:104A0000170618060906089500240A9412161306BC
:104A1000140605060895092E0394000C11F488234A
:104A200052F0BB0F40F4BF2B11F460FF04C06F5F66
:104A30007F4F8F4F9F4F0895AA1BBB1B51E107C0AB
:104A4000AA1FBB1FA617B70710F0A61BB70B881F1E
:104A5000991F5A95A9F780959095BC01CD010895AD
:104A600097FB072E16F4009407D077FD09D00E941B
:104A70001C2507FC05D03EF4909581959F4F089525
:104A8000709561957F4F0895EE0FFF1F0590F4918B
:104A9000E02D0994F999FECF92BD81BDF89A99272E
:104AA00080B50895A6E1B0E044E050E00C94842580
:104AB000A8E1B0E042E050E00C948425262FF9995B
:104AC000FECF92BD81BDF89A019700B4021639F06D
:104AD0001FBA20BD0FB6F894FA9AF99A0FBE08953E
:104AE0000396272F0E945F250E945E25252F0E9496
:104AF0005F25242F0C945F250196272F0E945F25A8
:104B00000C945E25DC01CB01FC01F999FECF06C0B7
:104B1000F2BDE1BDF89A319600B40D92415050407B
:084B2000B8F70895F894FFCFE7
:104B2800FFAB012808140A321E001D921D6D1D37A7
:104B38001D031D01F631404D3639A40457042104E4
:0A4B4800E8037B039403AD03C603EA
:00000001FF
